:100000000C945D000C9485000C9485000C94850084
:100010000C9485000C9485000C9485000C9485004C
:100020000C9485000C9485000C9485000C9485003C
:100030000C9485000C9485000C9485000C9485002C
:100040000C94BA020C9485000C9485000C948500E5
:100050000C9485000C9485000C9485000C9485000C
:100060000C9485000C94850000000008000201003B
:100070000003040700000000000000000000000072
:10008000250028002B0000000000240027002A0083
:10009000040404040404040402020202020203032E
:1000A0000303030301020408102040800102040836
:1000B00010200102040810208D0311241FBECFEF71
:1000C000D8E0DEBFCDBF11E0A0E0B1E0E4EBF7E0A7
:1000D00002C005900D92AE31B107D9F721E0AEE133
:1000E000B1E001C01D92AF33B207E1F710E0CDE5FA
:1000F000D0E004C02197FE010E94CD03CC35D1078A
:10010000C9F70E9404030C94D8030C94000090E0FB
:10011000FC01EC55FF4F2491FC01E057FF4F849107
:10012000882399F090E0880F991FFC01EA57FF4F50
:10013000A591B491FC01E458FF4F859194918FB73C
:10014000F894EC91E22BEC938FBF089590E0FC01C2
:10015000E859FF4F2491FC01EC55FF4F3491FC010D
:10016000E057FF4FE491EE2309F43CC0222339F11C
:10017000233091F038F42130A9F0223001F584B514
:100180008F7D12C0273091F02830A1F02430B9F4CF
:10019000809180008F7D03C0809180008F77809355
:1001A00080000DC084B58F7784BD09C08091B000F8
:1001B0008F7703C08091B0008F7D8093B000F0E016
:1001C000EE0FFF1FE458FF4FA591B4919FB7F8942D
:1001D000611104C08C913095382302C0EC913E2B04
:1001E0003C939FBF0895CF92DF92EF92FF920F93BF
:1001F0001F93CF93DF936C017A018B01C0E0D0E0B5
:10020000CE15DF0581F0D8016D918D01D601ED91FC
:10021000FC910190F081E02DC6010995892B11F028
:100220002196EECF7E01C701DF91CF911F910F91F3
:10023000FF90EF90DF90CF900895CF93DF93EC0184
:1002400060E08E810E94A60061E08E810E94A6007F
:1002500060E08E810E94A6008BE891E00197F1F7A3
:10026000DF91CF910895CF92DF92EF92FF920F939B
:100270001F93CF93DF936C017C0187E0E80EF11CA4
:10028000C0E0D0E0062F10E0B8010C2E02C075953A
:1002900067950A94E2F76170F70181917F010E94EE
:1002A000A6002196C430D10579F7C601DF91CF9120
:1002B0001F910F91FF90EF90DF90CF900C941D0154
:1002C000CF92DF92EF92FF920F931F93CF93DF9322
:1002D000EC01F62E642F8C810E94A6008D818F3F49
:1002E00019F060E00E94A6008F850F2D10E084FFBA
:1002F00025C06E0187E0C80ED11CE12CF12CB8019D
:100300000E2C02C0759567950A94E2F76170F601AC
:1003100081916F010E94A600FFEFEF1AFF0A88E0AB
:10032000E816F10461F7CE01DF91CF911F910F9193
:10033000FF90EF90DF90CF900C941D01B80184E006
:10034000759567958A95E1F7CE010E9433016F2D6F
:10035000CE01DF91CF911F910F91FF90EF90DF9031
:10036000CF900C94330140E0682F87E291E00C9429
:100370006001CF93DF93823028F09091360198602E
:100380009093360180933A0110923B0180E4809370
:100390003C0180E180933D0180E580933E018091A6
:1003A0002B010E94870080912C018F3F11F00E9449
:1003B000870080912D010E948700C7E2D1E09E0155
:1003C000275231408091360184FD03C084E090E0E3
:1003D00002C088E090E021962817390724F48E8126
:1003E0000E948700ECCF8BE39DE00197F1F760E07E
:1003F00080912B010E94A60060E080912D010E9457
:10040000A60080912C018F3F19F060E00E94A600A9
:100410008091360184FD20C063E087E291E00E9474
:100420003301CBE4D6E4CE010197F1F763E087E234
:1004300091E00E9433012197F1F763E087E291E0B8
:100440000E94330183E592E00197F1F762E087E2D1
:1004500091E00E94330115C080620E94B3018BE4D9
:1004600096E40197F1F78091360180620E94B30112
:1004700083E592E00197F1F78091360180620E9456
:10048000B3018091360180620E94B30184E08093C1
:1004900037018CE00E94B30181E00E94B3018BE33D
:1004A0009FE10197F1F782E08093380186E0DF91C8
:1004B000CF910C94B30141E00E94600181E090E093
:1004C0000895089580E090E00895009769F0FC0198
:1004D00001900020E9F73197AF01481B590BBC018F
:1004E00087E291E00C94F30080E090E008958F9211
:1004F0009F92AF92BF920F931F93CF93DF93CDB78D
:10050000DEB7A1970FB6F894DEBF0FBECDBF19A21C
:10051000423008F44AE08E010F5D1F4F842E912C6B
:10052000A12CB12CA50194010E94AB03E62FB901C7
:10053000CA0101501109EA3014F4E05D01C0E95C20
:10054000D801EC93232B242B252B61F7C8010E94A3
:100550006502A1960FB6F894DEBF0FBECDBFDF9146
:10056000CF911F910F91BF90AF909F908F90089562
:100570000E94D3031F920F920FB60F9211242F9354
:100580003F938F939F93AF93BF938091230190915B
:100590002401A0912501B09126013091220123E090
:1005A000230F2D3720F40196A11DB11D05C026E8AB
:1005B000230F0296A11DB11D2093220180932301D8
:1005C00090932401A0932501B093260180911E01F0
:1005D00090911F01A0912001B09121010196A11DD0
:1005E000B11D80931E0190931F01A0932001B09331
:1005F0002101BF91AF919F918F913F912F910F90CA
:100600000FBE0F901F901895789484B5826084BDBA
:1006100084B5816084BD85B5826085BD85B5816006
:1006200085BD80916E00816080936E001092810084
:10063000809181008260809381008091810081603F
:100640008093810080918000816080938000809100
:10065000B10084608093B1008091B000816080938C
:10066000B00080917A00846080937A0080917A0053
:10067000826080937A0080917A00816080937A0012
:1006800080917A00806880937A001092C10082E0A5
:100690000E94B901E1E080913A018111E0E0E19529
:1006A000F0E0E95DFE4F848980680E94B3018CE030
:1006B00091E00E94650242E06CE070E080E090E032
:1006C0000E947702E0913A01E23010F4E15001C05B
:1006D000E1E0F0E0E95DFE4F848980680E94B301AB
:1006E00081E191E00E94650240E16CE070E080E011
:1006F00090E00E94770286E191E00E9465024AE064
:100700006CE070E080E090E00E947702C0E0D0E012
:100710002097F1F30E940000FBCFE7E2F1E01382A3
:10072000128284E091E09183808384E084838FEF60
:10073000858385E0868386E0878387E0808788E0FD
:10074000818789E082871386148615861686178628
:1007500081E00C94B901A1E21A2EAA1BBB1BFD017A
:100760000DC0AA1FBB1FEE1FFF1FA217B307E40790
:10077000F50720F0A21BB30BE40BF50B661F771FE8
:10078000881F991F1A9469F76095709580959095C8
:100790009B01AC01BD01CF010895EE0FFF1F059035
:1007A000F491E02D099481E090E0F8940C94D80342
:0407B000F894FFCFEB
:1007B400000000005B02F3006202610242696E3ACB
:0E07C400004865783A002E204465633A000034
:00000001FF
