:100000000C945D000C9485000C9485000C94850084
:100010000C9485000C9485000C9485000C9485004C
:100020000C9485000C9485000C9485000C9485003C
:100030000C9485000C9485000C9485000C9485002C
:100040000C9492020C9485000C9485000C9485000D
:100050000C9485000C9485000C9485000C9485000C
:100060000C9485000C94850000000008000201003B
:100070000003040700000000000000000000000072
:10008000250028002B0000000000240027002A0083
:10009000040404040404040402020202020203032E
:1000A0000303030301020408102040800102040836
:1000B0001020010204081020800311241FBECFEF7E
:1000C000D8E0DEBFCDBF11E0A0E0B1E0E6E5F7E0AB
:1000D00002C005900D92AC33B107D9F721E0ACE333
:1000E000B1E001C01D92AD35B207E1F710E0CDE5FA
:1000F000D0E004C02197FE010E949E03CC35D107B9
:10010000C9F70E94DC020C94A9030C94000090E053
:10011000FC01EC55FF4F2491FC01E057FF4F849107
:10012000882399F090E0880F991FFC01EA57FF4F50
:10013000A591B491FC01E458FF4F859194918FB73C
:10014000F894EC91E22BEC938FBF089590E0FC01C2
:10015000E859FF4F2491FC01EC55FF4F3491FC010D
:10016000E057FF4FE491EE2309F43CC0222339F11C
:10017000233091F038F42130A9F0223001F584B514
:100180008F7D12C0273091F02830A1F02430B9F4CF
:10019000809180008F7D03C0809180008F77809355
:1001A00080000DC084B58F7784BD09C08091B000F8
:1001B0008F7703C08091B0008F7D8093B000F0E016
:1001C000EE0FFF1FE458FF4FA591B4919FB7F8942D
:1001D000611104C08C913095382302C0EC913E2B04
:1001E0003C939FBF0895CF92DF92EF92FF920F93BF
:1001F0001F93CF93DF936C017A018B01C0E0D0E0B5
:10020000CE15DF0581F0D8016D918D01D601ED91FC
:10021000FC910190F081E02DC6010995892B11F028
:100220002196EECF7E01C701DF91CF911F910F91F3
:10023000FF90EF90DF90CF900895CF93DF93EC0184
:1002400060E08E810E94A60061E08E810E94A6007F
:1002500060E08E810E94A6008BE891E00197F1F7A3
:10026000DF91CF910895CF92DF92EF92FF920F939B
:100270001F93CF93DF936C017C0187E0E80EF11CA4
:10028000C0E0D0E0062F10E0B8010C2E02C075953A
:1002900067950A94E2F76170F70181917F010E94EE
:1002A000A6002196C430D10579F7C601DF91CF9120
:1002B0001F910F91FF90EF90DF90CF900C941D0154
:1002C000CF92DF92EF92FF920F931F93CF93DF9322
:1002D000EC01F62E642F8C810E94A6008D818F3F49
:1002E00019F060E00E94A6008F850F2D10E084FFBA
:1002F00025C06E0187E0C80ED11CE12CF12CB8019D
:100300000E2C02C0759567950A94E2F76170F601AC
:1003100081916F010E94A600FFEFEF1AFF0A88E0AB
:10032000E816F10461F7CE01DF91CF911F910F9193
:10033000FF90EF90DF90CF900C941D01B80184E006
:10034000759567958A95E1F7CE010E9433016F2D6F
:10035000CE01DF91CF911F910F91FF90EF90DF9031
:10036000CF900C94330140E0682F85E491E00C9429
:100370006001CF93DF93823028F090915401986010
:1003800090935401809358011092590180E4809316
:100390005A0180E180935B0180E580935C0180914C
:1003A00049010E94870080914A018F3F11F00E940D
:1003B000870080914B010E948700C5E4D1E09E0137
:1003C000255431408091540184FD03C084E090E0C5
:1003D00002C088E090E021962817390724F48E8126
:1003E0000E948700ECCF8BE39DE00197F1F760E07E
:1003F000809149010E94A60060E080914B010E941B
:10040000A60080914A018F3F19F060E00E94A6008B
:100410008091540184FD20C063E085E491E00E9456
:100420003301CBE4D6E4CE010197F1F763E085E434
:1004300091E00E9433012197F1F763E085E491E0B8
:100440000E94330183E592E00197F1F762E085E4D1
:1004500091E00E94330115C080620E94B3018BE4D9
:1004600096E40197F1F78091540180620E94B301F4
:1004700083E592E00197F1F78091540180620E9438
:10048000B3018091540180620E94B30184E08093A3
:1004900055018CE00E94B30181E00E94B3018BE31F
:1004A0009FE10197F1F782E08093560186E0DF91AA
:1004B000CF910C94B301E1E0909158019111E0E0EB
:1004C000E195F0E0EB5BFE4F9489890F80680C9416
:1004D000B30141E00E94600181E090E008950F9334
:1004E0001F93CF93DF938B01877028E0829FC00119
:1004F000112480640E94B301E801085F1F4F6991D5
:1005000085E491E00E946902C017D107C1F7DF912D
:10051000CF911F910F910895089580E090E0089584
:100520000E94A4031F920F920FB60F9211242F93D3
:100530003F938F939F93AF93BF938091410190918D
:100540004201A0914301B09144013091400123E068
:10055000230F2D3720F40196A11DB11D05C026E8FB
:10056000230F0296A11DB11D2093400180934101EC
:1005700090934201A0934301B093440180913C01C8
:1005800090913D01A0913E01B0913F010196A11DC6
:10059000B11D80933C0190933D01A0933E01B09327
:1005A0003F01BF91AF919F918F913F912F910F90FC
:1005B0000FBE0F901F901895789484B5826084BD0B
:1005C00084B5816084BD85B5826085BD85B5816057
:1005D00085BD80916E00816080936E0010928100D5
:1005E0008091810082608093810080918100816090
:1005F0008093810080918000816080938000809151
:10060000B10084608093B1008091B00081608093DC
:10061000B00080917A00846080937A0080917A00A3
:10062000826080937A0080917A00816080937A0062
:1006300080917A00806880937A001092C10068E20D
:1006400071E083E00E946F0260E271E084E00E944A
:100650006F0268E171E085E00E946F0260E171E085
:1006600086E00E946F0268E071E082E00E946F0203
:1006700060E071E081E00E946F0282E00E94B901B7
:10068000C0E0D0E080915501982F9460909355017F
:100690008C600E94B30180E00E945B0261E085E40F
:1006A00091E00E94690281E00E945B0262E085E4C1
:1006B00091E00E94690282E00E945B0263E085E4AF
:1006C00091E00E94690283E00E945B0264E085E49D
:1006D00091E00E94690284E00E945B0265E085E48B
:1006E00091E00E94690285E00E945B0266E085E479
:1006F00091E00E946902209729F20E940000C2CF77
:10070000E5E4F1E01382128284E391E09183808337
:1007100084E084838FEF858385E0868386E087830A
:1007200087E0808788E0818789E082871386148646
:1007300015861686178681E00C94B901EE0FFF1F0F
:100740000590F491E02D099481E090E0F8940C94E8
:06075000A903F894FFCF9D
:100756001B1B1B1F1B1B1B001C1B1B1F1B1B1B0010
:100766000404041C04040600001C111F101C0000D5
:1007760004040404040404000000001F15151500F9
:0C078600000000006902F3008D028C02EC
:00000001FF
