:100000000C945C000C9479000C9479000C947900A9
:100010000C9479000C9479000C9479000C9479007C
:100020000C9479000C9479000C9479000C9479006C
:100030000C9479000C9479000C9479000C9479005C
:100040000C94ED000C9479000C9479000C947900D8
:100050000C9479000C9479000C9479000C9479003C
:100060000C9479000C947900000000002400270013
:100070002A0000000000250028002B0004040404CE
:100080000404040402020202020203030303030342
:10009000010204081020408001020408102001021F
:1000A00004081020000000080002010000030407FB
:1000B000000000000000000011241FBECFEFD8E0B8
:1000C000DEBFCDBF11E0A0E0B1E0E0ECF3E002C0A4
:1000D00005900D92A833B107D9F721E0A8E3B1E06C
:1000E00001C01D92A134B207E1F70E9437010C94C0
:1000F000DE010C94000090E0FC01EC55FF4F2491D0
:10010000FC01E057FF4F3491FC01E458FF4FE491AC
:10011000EE2309F43CC0222339F1233091F038F466
:100120002130A9F0223001F584B58F7D12C027302F
:1001300091F02830A1F02430B9F4809180008F7DB7
:1001400003C0809180008F77809380000DC084B5BC
:100150008F7784BD09C08091B0008F7703C08091F4
:10016000B0008F7D8093B000F0E0EE0FFF1FEE58DF
:10017000FF4FA591B4919FB7F894611104C08C9181
:100180003095382302C0EC913E2B3C939FBF0895DD
:100190003FB7F89480913D0190913E01A0913F01BD
:1001A000B091400126B5A89B05C02F3F19F00196DC
:1001B000A11DB11D3FBFBA2FA92F982F8827820FED
:1001C000911DA11DB11DBC01CD0142E0660F771F3D
:1001D000881F991F4A95D1F708951F920F920FB665
:1001E0000F9211242F933F938F939F93AF93BF93BD
:1001F0008091390190913A01A0913B01B0913C016D
:100200003091380123E0230F2D3720F40196A11DF2
:10021000B11D05C026E8230F0296A11DB11D209334
:1002200038018093390190933A01A0933B01B09338
:100230003C0180913D0190913E01A0913F01B09120
:1002400040010196A11DB11D80933D0190933E0197
:10025000A0933F01B0934001BF91AF919F918F91C7
:100260003F912F910F900FBE0F901F90189578948B
:1002700084B5826084BD84B5816084BD85B58260AB
:1002800085BD85B5816085BD80916E00816080935C
:100290006E001092810080918100826080938100C5
:1002A00080918100816080938100809180008160D5
:1002B000809380008091B10084608093B100809130
:1002C000B00081608093B00080917A008460809358
:1002D0007A0080917A00826080937A0080917A001F
:1002E000816080937A0080917A00806880937A00A0
:1002F0001092C10022E030E0F901E057FF4F449135
:10030000F901E458FF4F8491882399F090E0880F19
:10031000991FFC01E859FF4FA591B491FC01EE58DB
:10032000FF4F859194918FB7F894EC91E42BEC9367
:100330008FBF2F5F3F4F2E303105F1F680E0E82E62
:1003400080E0F82E00E011E0C9E0D2E0A12CB12C51
:1003500061E0F801EA0DFB1D80819181019709F4AC
:1003600060E08D2F0E947B0022E0A20EB11CDF5FB7
:10037000D93071F760E08C2F0E947B000E94C8008A
:100380004B015C010E94C800DC01CB01881999096E
:10039000AA09BB09883E9340A105B10598F361E025
:1003A0008C2F0E947B00CF5F025F1F4FCE3069F61B
:1003B000E114F10439F20E940000C4CFF894FFCF99
:1003C000010000000000000001000000000000002B
:1003D000000000000000000000000100000001001B
:1003E000010000000000000001000000010000000A
:0803F000000000000000000005
:00000001FF
