:100000000C945D000C9485000C9485000C94850084
:100010000C9485000C9485000C9485000C9485004C
:100020000C9485000C9485000C9485000C9485003C
:100030000C9485000C9485000C9485000C9485002C
:100040000C94D1010C9485000C9485000C948500CF
:100050000C9485000C9485000C9485000C9485000C
:100060000C9485000C94850000000008000201003B
:100070000003040700000000000000000000000072
:10008000250028002B0000000000240027002A0083
:10009000040404040404040402020202020203032E
:1000A0000303030301020408102040800102040836
:1000B0001020010204081020C40211241FBECFEF3B
:1000C000D8E0DEBFCDBF11E0A0E0B1E0E6ECFAE0A1
:1000D00002C005900D92A031B107D9F721E0A0E14F
:1000E000B1E001C01D92A133B207E1F710E0CDE508
:1000F000D0E004C02197FE010E945605CC35D107FF
:10010000C9F70E941B020C9461050C94000090E05A
:10011000FC01EC55FF4F2491FC01E057FF4F849107
:10012000882399F090E0880F991FFC01EA57FF4F50
:10013000A591B491FC01E458FF4F859194918FB73C
:10014000F894EC91E22BEC938FBF089590E0FC01C2
:10015000E859FF4F2491FC01EC55FF4F3491FC010D
:10016000E057FF4FE491EE2309F43CC0222339F11C
:10017000233091F038F42130A9F0223001F584B514
:100180008F7D12C0273091F02830A1F02430B9F4CF
:10019000809180008F7D03C0809180008F77809355
:1001A00080000DC084B58F7784BD09C08091B000F8
:1001B0008F7703C08091B0008F7D8093B000F0E016
:1001C000EE0FFF1FE458FF4FA591B4919FB7F8942D
:1001D000611104C08C913095382302C0EC913E2B04
:1001E0003C939FBF0895CF92DF92EF92FF920F93BF
:1001F0001F93CF93DF936C017A018B01C0E0D0E0B5
:10020000CE15DF0581F0D8016D918D01D601ED91FC
:10021000FC910190F081E02DC6010995892B11F028
:100220002196EECF7E01C701DF91CF911F910F91F3
:10023000FF90EF90DF90CF900895CF93DF93EC0184
:1002400060E08E810E94A60061E08E810E94A6007F
:1002500060E08E810E94A6008BE891E00197F1F7A3
:10026000DF91CF910895CF92DF92EF92FF920F939B
:100270001F93CF93DF936C017C0187E0E80EF11CA4
:10028000C0E0D0E0062F10E0B8010C2E02C075953A
:1002900067950A94E2F76170F70181917F010E94EE
:1002A000A6002196C430D10579F7C601DF91CF9120
:1002B0001F910F91FF90EF90DF90CF900C941D0154
:1002C000CF92DF92EF92FF920F931F93CF93DF9322
:1002D000EC01F62E642F8C810E94A6008D818F3F49
:1002E00019F060E00E94A6008F850F2D10E084FFBA
:1002F00025C06E0187E0C80ED11CE12CF12CB8019D
:100300000E2C02C0759567950A94E2F76170F601AC
:1003100081916F010E94A600FFEFEF1AFF0A88E0AB
:10032000E816F10461F7CE01DF91CF911F910F9193
:10033000FF90EF90DF90CF900C941D01B80184E006
:10034000759567958A95E1F7CE010E9433016F2D6F
:10035000CE01DF91CF911F910F91FF90EF90DF9031
:10036000CF900C94330141E00E94600181E090E065
:100370000895089580E090E00895009769F0FC01E9
:1003800001900020E9F73197AF01481B590BBC01E0
:1003900089E191E00C94F30080E090E008950E94E0
:1003A0005C051F920F920FB60F9211242F933F936B
:1003B0008F939F93AF93BF938091150190911601F6
:1003C000A0911701B09118013091140123E0230F7F
:1003D0002D3720F40196A11DB11D05C026E8230F7D
:1003E0000296A11DB11D20931401809315019093D5
:1003F0001601A0931701B0931801809110019091FC
:100400001101A0911201B09113010196A11DB11D1E
:100410008093100190931101A0931201B0931301E6
:10042000BF91AF919F918F913F912F910F900FBEF0
:100430000F901F901895CF93DF93CDB7DEB7A1979C
:100440000FB6F894DEBF0FBECDBF789484B582603E
:1004500084BD84B5816084BD85B5826085BD85B568
:10046000816085BD80916E00816080936E001092E6
:100470008100809181008260809381008091810061
:1004800081608093810080918000816080938000F2
:100490008091B10084608093B1008091B000816050
:1004A0008093B00080917A00846080937A0080917C
:1004B0007A00826080937A0080917A0081608093D4
:1004C0007A0080917A00806880937A001092C1004F
:1004D0008CE091E00E94BD0119A282E388A3CE01C5
:1004E00080960E94BD0141E06EE289E191E00E94A8
:1004F000600184E0F82E64E172E088E39FE32AE083
:10050000222E312C412C512CFA94F11003C000E022
:1005100010E036C020E030E040E251E40E94C70421
:100520004B015C010E940A049B0140E050E019A2CB
:100530008E010F5D1F4F762EC32ED42EE52ECA01DD
:10054000B901A20191010E943405605DF801629336
:100550008F01211531054105510589F7CF010E9411
:10056000BD01672D7C2D8D2D9E2D0E9439049B0190
:10057000AC01C501B4010E949D03C6CF0E940000DA
:1005800001151105E9F3FACFCF93DF9310921C0107
:1005900010921B0184E091E090931A01809319015D
:1005A00084E080931D018FEF80931E0185E080938E
:1005B0001F0186E08093200187E08093210188E07D
:1005C0008093220189E080932301109224011092EC
:1005D000250110922601109227011092280181E036
:1005E00080932C0110922D0180E480932E0180E1F4
:1005F00080932F0180E58093300184E00E94870082
:1006000080911E018F3F11F00E94870080911F0191
:100610000E948700C9E1D1E09E01295131408091BB
:10062000280184FD03C084E090E002C088E090E0EF
:1006300021962817390724F48E810E948700ECCF79
:100640008BE39DE00197F1F760E080911D010E942E
:10065000A60060E080911F010E94A60080911E010B
:100660008F3F19F060E00E94A6006091280164FDB0
:1006700020C063E089E191E00E943301CBE4D6E43D
:10068000CE010197F1F763E089E191E00E94330127
:100690002197F1F763E089E191E00E94330183E55E
:1006A00092E00197F1F762E089E191E00E94330165
:1006B0001EC0606240E089E191E00E9460018BE42D
:1006C00096E40197F1F760912801606240E089E1CA
:1006D00091E00E94600183E592E00197F1F760915B
:1006E0002801606240E089E191E00E946001609130
:1006F0002801606240E089E191E00E94600184E0AD
:100700008093290140E06CE089E191E00E94600162
:1007100040E061E089E191E00E9460018BE39FE1AC
:100720000197F1F782E080932A0140E066E089E1D9
:1007300091E0DF91CF910C9460015058BB27AA271C
:100740000E94B5030C948D040E947F0438F00E942F
:10075000860420F039F49F3F19F426F40C947C04AD
:100760000EF4E095E7FB0C947604E92F0E949E04BA
:1007700058F3BA17620773078407950720F079F4D6
:10078000A6F50C94C0040EF4E0950B2EBA2FA02D04
:100790000B01B90190010C01CA01A0011124FF272E
:1007A000591B99F0593F50F4503E68F11A16F04029
:1007B000A22F232F342F4427585FF3CF4695379528
:1007C0002795A795F0405395C9F77EF41F16BA0BED
:1007D000620B730B840BBAF09150A1F0FF0FBB1F9B
:1007E000661F771F881FC2F70EC0BA0F621F731FE4
:1007F000841F48F4879577956795B795F7959E3F41
:1008000008F0B0CF9395880F08F09927EE0F9795D1
:10081000879508950E94A60488F09F5798F0B92FF5
:100820009927B751B0F0E1F0660F771F881F991F25
:100830001AF0BA95C9F714C0B13091F00E94C00403
:10084000B1E008950C94C004672F782F8827B85F13
:1008500039F0B93FCCF3869577956795B395D9F77D
:100860003EF490958095709561957F4F8F4F9F4F87
:100870000895E89409C097FB3EF490958095709593
:1008800061957F4F8F4F9F4F9923A9F0F92F96E9DC
:10089000BB279395F695879577956795B795F11151
:1008A000F8CFFAF4BB0F11F460FF1BC06F5F7F4FEE
:1008B0008F4F9F4F16C0882311F096E911C0772300
:1008C00021F09EE8872F762F05C0662371F096E809
:1008D000862F70E060E02AF09A95660F771F881FD8
:1008E000DAF7880F9695879597F9089597F99F6796
:1008F00080E870E060E008959FEF80EC08950024A8
:100900000A941616170618060906089500240A9474
:1009100012161306140605060895092E0394000CFA
:1009200011F4882352F0BB0F40F4BF2B11F460FF89
:1009300004C06F5F7F4F8F4F9F4F089557FD9058B2
:10094000440F551F59F05F3F71F04795880F97FB93
:10095000991F61F09F3F79F087950895121613064D
:100960001406551FF2CF4695F1DF08C0161617067C
:100970001806991FF1CF86957105610508940895B1
:10098000E894BB2766277727CB0197F908950E9443
:10099000DA040C948D040E947F0438F00E948604CF
:1009A00020F0952311F00C9476040C947C0411240F
:1009B0000C94C1040E949E0470F3959FC1F3950F9F
:1009C00050E0551F629FF001729FBB27F00DB11DD3
:1009D000639FAA27F00DB11DAA1F649F6627B00D63
:1009E000A11D661F829F2227B00DA11D621F739F4C
:1009F000B00DA11D621F839FA00D611D221F749F5A
:100A00003327A00D611D231F849F600D211D822FA0
:100A1000762F6A2F11249F5750409AF0F1F08823C7
:100A20004AF0EE0FFF1FBB1F661F771F881F9150F4
:100A30005040A9F79E3F510580F00C9476040C9429
:100A4000C1045F3FE4F3983ED4F3869577956795AC
:100A5000B795F795E7959F5FC1F7FE2B880F911D1E
:100A60009695879597F90895A1E21A2EAA1BBB1BAC
:100A7000FD010DC0AA1FBB1FEE1FFF1FA217B3076A
:100A8000E407F50720F0A21BB30BE40BF50B661F80
:100A9000771F881F991F1A9469F760957095809544
:100AA00090959B01AC01BD01CF010895EE0FFF1F92
:100AB0000590F491E02D099481E090E0F8940C9475
:060AC0006105F894FFCF70
:100AC60000000000B301F300BA01B901653A200045
:00000001FF
