:100000000C9463000C948B000C948B000C948B006C
:100010000C948B000C948B000C948B000C94520568
:100020000C948B000C948B000C948B000C948B0024
:100030000C948B000C948B000C948B000C948B0014
:100040000C9408050C948B000C94FA050C94D405C0
:100050000C948B000C948B000C948B000C948B00F4
:100060000C948B000C948B000200000000240027ED
:10007000002A0000000000250028002B00000000DE
:100080000800020100000304070000000000000057
:1000900000000000002300260029000404040404DA
:1000A0000404040202020202020303030303030125
:1000B00002040810204080010204081020010204FC
:1000C000081020002C0611241FBECFEFD8E0DEBFA1
:1000D000CDBF11E0A0E0B1E0E8EDF6E102C005908F
:1000E0000D92A035B107D9F722E0A0E5B1E001C03B
:1000F0001D92AA31B207E1F710E0C3E6D0E004C0D8
:100100002197FE010E945F0BC236D107C9F70E94FA
:1001100078060C946A0B0C940000CF92DF92EF9259
:10012000FF92CF93DF93B0910E02882311F0AB2F93
:1001300001C0A0E080910F0290E0880F991F8F56B8
:100140009F4FC0901402D0901502E0901602F090DC
:10015000170220E030E0FC01C591D491E881EB2347
:10016000A90160E070E0EA130CC02F5F3F4F4C150F
:100170005D056E057F0578F33FEF2FEF8FEF9FEF63
:1001800003C0322F252FCB01632F722FDF91CF9128
:10019000FF90EF90DF90CF90089590E0FC01E3583E
:1001A000FF4F2491FC01E155FF4F3491FC01E556CE
:1001B000FF4FE491EE2309F43CC0222339F12330B0
:1001C00091F038F42130A9F0223001F584B58F7D0B
:1001D00012C0273091F02830A1F02430B9F480917A
:1001E00080008F7D03C0809180008F778093800096
:1001F0000DC084B58F7784BD09C08091B0008F7722
:1002000003C08091B0008F7D8093B000F0E0EE0FCE
:10021000FF1FED58FF4FA591B4919FB7F89461115E
:1002200004C08C913095382302C0EC913E2B3C9356
:100230009FBF0895CF93DF9390E0FC01E155FF4FFE
:100240002491FC01E556FF4F8491882361F190E0F1
:10025000880F991FFC01E759FF4FC591D491FC010C
:10026000ED58FF4FA591B491611109C09FB7F89463
:100270008881209582238883EC912E230BC06230E5
:1002800061F49FB7F8948881322F30958323888357
:10029000EC912E2B2C939FBF06C08FB7F894E8816A
:1002A0002E2B28838FBFDF91CF9108953FB7F8940D
:1002B0008091620190916301A0916401B091650108
:1002C00026B5A89B05C02F3F19F00196A11DB11DB1
:1002D0003FBFBA2FA92F982F8827820F911DA11DEC
:1002E000B11DBC01CD0142E0660F771F881F991F29
:1002F0004A95D1F708958F929F92AF92BF92CF9275
:10030000DF92EF92FF926B017C010E9456014B013C
:100310005C01C114D104E104F104F1F00E94560122
:10032000DC01CB0188199909AA09BB09883E9340D1
:10033000A105B10570F321E0C21AD108E108F10866
:1003400088EE880E83E0981EA11CB11CC114D10454
:10035000E104F10419F7DDCFFF90EF90DF90CF902B
:10036000BF90AF909F908F900895CF92DF92EF92C1
:10037000FF920F931F93CF93DF93CDB7DEB7C05497
:10038000D1400FB6F894DEBF0FBECDBF2FB7F894A3
:100390008091660190916701A0916801B091690117
:1003A0002FBF409110025091110260911202709182
:1003B00013028C019D01041B150B260B370BB90191
:1003C000A801403D57406105710518F4809118025D
:1003D000CAC08093100290931102A0931202B093AE
:1003E000130210920B0210920A021092090210924C
:1003F00008021092070262E080910C020E941A012A
:1004000061E070E080E090E00E947B0161E080911B
:100410000C020E941A0160E080910C020E94CD0043
:1004200080910D028551823028F48BE291E1019791
:10043000F1F706C064E170E080E090E00E947B018B
:1004400062E080910C020E941A018091190290E0F2
:100450008230910538F0880F991F880F991F0597F2
:100460000197F1F7F89480E00E948D006F3F7F4F75
:100470008F4F9F4F21F410921802789441C081E071
:100480000E948D006F3F7F4F8F4F9F4FA1F38E01D2
:100490000F5F1F4F6E018FEBC81A8EEFD80A7801DD
:1004A00080E00E948D00F7016083718382839383D3
:1004B00081E00E948D00F7016483758386839783B2
:1004C000F8E0EF0EF11CEC14FD0451F7789420E0F5
:1004D00030E0F801C080D180E280F3804481558112
:1004E00066817781FFEFCF16DF06EF06FF0631F05A
:1004F0004F3F8FEF58076807780721F410921802D2
:1005000080E031C0F90183E0F595E7958A95E1F740
:10051000E95FFD4F8081880FC416D506E606F70611
:1005200008F4816080832F5F3F4F085F1F4F2832A0
:10053000310579F620910B0230E04091070280915D
:10054000080290E0840F911D40910902840F911DD3
:1005500040910A02840F911D99272817390771F6D7
:1005600081E080931802C05CDE4F0FB6F894DEBFC6
:100570000FBECDBFDF91CF911F910F91FF90EF90F4
:10058000DF90CF900895CF92DF92EF92FF920F937A
:100590001F93CF93DF936C017A018B01C0E0D0E011
:1005A000CE15DF0581F0D8016D918D01D601ED9159
:1005B000FC910190F081E02DC6010995892B11F085
:1005C0002196EECF7E01C701DF91CF911F910F9150
:1005D000FF90EF90DF90CF900895089580E090E035
:1005E0000895FC01538D448D252F30E0842F90E039
:1005F000821B930B541710F0CF960895019708951E
:10060000FC01918D828D981761F0828DDF01A80F1A
:10061000B11D5D968C91928D9F5F9F73928F90E03C
:1006200008958FEF9FEF0895FC01918D828D9817AB
:1006300031F0828DE80FF11D858D90E008958FEFE8
:100640009FEF0895FC01918D228D892F90E0805CB1
:100650009F4F821B91098F73992708958AE691E035
:100660000E94220321E0892B09F420E0822F0895C3
:10067000FC01848DDF01A80FB11DA35ABF4F2C913F
:10068000848D90E001968F739927848FA689B7890E
:100690002C93A089B1898C91837080648C93938D05
:1006A000848D981306C00288F389E02D80818F7DA8
:1006B00080830895EF92FF920F931F93CF93DF9360
:1006C000EC0181E0888F9B8D8C8D981305C0E889A3
:1006D000F989808185FD26C0F62E0B8D10E00F5F15
:1006E0001F4F0F731127E02E8C8DE8120CC00FB630
:1006F00007FCFACFE889F989808185FFF5CFCE0123
:100700000E943803F1CF8B8DFE01E80FF11DE35AF3
:10071000FF4FF0829FB7F8940B8FEA89FB898081A5
:1007200080620AC09FB7F894EE89FF896083E889E8
:10073000F98980818370806480839FBF81E090E02D
:10074000DF91CF911F910F91FF90EF900895CF937C
:10075000DF93EC01888D8823C9F0EA89FB898081C9
:1007600085FD05C0A889B9898C9186FD0FC00FB69B
:1007700007FCF5CF808185FFF2CFA889B9898C91DC
:1007800085FFEDCFCE010E943803E7CFDF91CF91F7
:10079000089580E090E0892B29F00E942E038111BA
:1007A0000C9400000895009769F0FC01019000206E
:1007B000E9F73197AF01481B590BBC018AE691E07C
:1007C0000C94C30280E090E008952F923F924F92E4
:1007D0005F926F927F928F929F92AF92BF92CF92D1
:1007E000DF92EF92FF920F931F93CF93DF93CDB7DA
:1007F000DEB7A4970FB6F894DEBF0FBECDBF4B0196
:100800005C01F42E9B01AC010E94380B882319F087
:1008100083E191E027C024013501E89477F82FEFB8
:100820003FEF4FE75FE7C301B2010E94380B811130
:100830000DC02FEF3FEF4FE75FE7C301B2010E940A
:100840006E0918161CF487E191E00CC02FEF3FEF02
:100850004FE75FE4C501B4010E94C60A18162CF4E4
:100860008BE191E00E94D303B8C02FEF3FEF4FE739
:100870005FECC501B4010E946E0987FDF1CF20E055
:1008800030E0A901C501B4010E946E0987FF0BC0C9
:100890006DE28AE691E00E945A033C01B7FAB094F7
:1008A000B7F8B09402C0612C712C10E060E070E0E9
:1008B00080E09FE3F11641F020E030E040E251E4B7
:1008C0000E9473091F5FF6CFA50194010E940209DF
:1008D0004B015C010E94E5096AA3C72ED82EE92EC0
:1008E00019A2262F372F482F592F8E010F5D1F4F2A
:1008F0000BA31CA39AE0292E312C412C512CCA01A8
:10090000B901A20191010E943D0B605DF801629363
:100910008F01211531054105510589F7CF010E944D
:10092000D3038301080F191FFF2009F455C06AA1E2
:100930007C2D8D2D9E2D0E94140A9B01AC01C501BA
:10094000B4010E9401094B015C016EE28AE691E06C
:100950000E945A03080F191F8AE0282E312C412CBF
:10096000512C20E030E040E251E4C501B4010E9486
:10097000CB0A4B015C010E94E5099B0140E050E07D
:1009800019A2CBA0DCA0762E3AA3642EE52ECA01D4
:10099000B901A20191010E943D0B605DF6016293D5
:1009A0006F01211531054105510589F7CF010E94DD
:1009B000D303080F191F672D7AA1862D9E2D0E9443
:1009C000140A9B01AC01C501B4010E9401094B014D
:1009D0005C01FA94F110C5CFC801A4960FB6F89443
:1009E000DEBF0FBECDBFDF91CF911F910F91FF9062
:1009F000EF90DF90CF90BF90AF909F908F907F90BF
:100A00006F905F904F903F902F9008950E94650BDC
:100A10001F920F920FB60F9211242F933F938F9333
:100A20009F93AF93BF938091660190916701A091CE
:100A30006801B09169013091610123E0230F2D37E6
:100A400020F40196A11DB11D05C026E8230F0296D2
:100A5000A11DB11D209361018093660190936701F0
:100A6000A0936801B0936901809162019091630144
:100A7000A0916401B09165010196A11DB11D809303
:100A8000620190936301A0936401B0936501BF91EB
:100A9000AF919F918F913F912F910F900FBE0F902B
:100AA0001F9018951F920F920FB60F9211242F933B
:100AB0003F934F935F936F937F938F939F93AF93E6
:100AC000BF93EF93FF938091550190915601A091B0
:100AD0005701B0915801892B8A2B8B2B59F190919A
:100AE0005001E0915101F09152018081892780836A
:100AF0008091550190915601A0915701B0915801F4
:100B0000181619061A061B060CF03DC080915501F7
:100B100090915601A0915701B09158010197A109F8
:100B2000B1098093550190935601A0935701B0935A
:100B3000580129C080910001E8E6F0E0E4919FEFC0
:100B400090930001E130B9F098F0E230C9F490914F
:100B500070009D7F9093700091E09093B000909111
:100B6000B100987F94609093B1001092B30008C0D8
:100B700010926E0005C090916F009D7F90936F0062
:100B800060E00E94CD00FF91EF91BF91AF919F91E6
:100B90008F917F916F915F914F913F912F910F9026
:100BA0000FBE0F901F9018951F920F920FB60F92C5
:100BB00011242F933F934F935F936F937F938F9362
:100BC0009F93AF93BF93EF93FF938AE691E00E94C8
:100BD0003803FF91EF91BF91AF919F918F917F91DA
:100BE0006F915F914F913F912F910F900FBE0F909A
:100BF0001F9018951F920F920FB60F9211242F93EA
:100C00008F939F93EF93FF93E0917A01F0917B0193
:100C10008081E0918001F091810182FD12C090817C
:100C2000809183018F5F8F7320918401821751F02F
:100C3000E0918301F0E0E659FE4F958F80938301A8
:100C400001C08081FF91EF919F918F912F910F9023
:100C50000FBE0F901F901895EAE6F1E01382128202
:100C600088EE93E0A0E0B0E084839583A683B78309
:100C700085E091E09183808385EC90E0958784877F
:100C800084EC90E09787868780EC90E0918B808B56
:100C900081EC90E0938B828B82EC90E0958B848B3F
:100CA00086EC90E0978B868B118E128E138E148EAD
:100CB000A7E0B2E08BE015968C93159716968C936F
:100CC0001697EAEBF0E0E4911796EC931797E6EAB3
:100CD000F0E0E4911896EC93189740E85EE360E04A
:100CE00070E01D964D935D936D937C93509708959E
:100CF000789484B5826084BD84B5816084BD85B5F7
:100D0000826085BD85B5816085BD80916E00816002
:100D100080936E00109281008091810082608093A8
:100D200081008091810081608093810080918000AA
:100D30008160809380008091B10084608093B100D5
:100D40008091B00081608093B00080917A008460CF
:100D500080937A0080917A00826080937A008091FB
:100D60007A00816080937A0080917A008068809315
:100D70007A001092C100E0917A01F0917B0182E04B
:100D80008083E0917601F09177011082E091780103
:100D9000F09179018FEC808310928201E0917E01C5
:100DA000F0917F0186E08083E0917C01F0917D01EC
:100DB000808180618083E0917C01F0917D01808160
:100DC00088608083E0917C01F0917D018081806862
:100DD0008083E0917C01F0917D0180818F7D808313
:100DE00061E087E00E941A0162E080910C020E949B
:100DF0001A012FB7F8948091660190916701A09134
:100E00006801B09169012FBF805D9740A109B109C8
:100E10008093100290931102A0931202B0931302D8
:100E200087E38093190268EE462E63E0562E612C0C
:100E3000712C7CE7272E01EA10E0C5EBD0E060EDD5
:100E400077E080E090E00E947B010E94B50188235A
:100E5000D1F180910D028B30B0F18D30A8F0855129
:100E6000823088F560910702709108027627672723
:100E7000762780E090E00E94140A2DEC3CEC4CECCC
:100E80005DE30E94CB0A1CC06091080270E080E024
:100E900090E00E94160A2DEC3CEC4CEC5DE30E94C5
:100EA000CB0A6B017C016091070270E080E090E06A
:100EB0000E94160A9B01AC01C701B6010E940209FB
:100EC0004B015C0106C0812C912C50ECA52E5FE7F4
:100ED000B52E0E94B501882309F48AC080910D02C5
:100EE0008C3009F448C018F48B30D1F06BC08551B8
:100EF000823008F067C030900902632D6F7770E090
:100F0000762F662780910A02682B80E090E00E948D
:100F1000140A2DEC3CEC4CEC5DE30E94CB0A49C07A
:100F20006091090270E080E090E00E94140A6B0179
:100F30007C0130900A0237FE0AC09B01AC0160E0E0
:100F400070E080E89FEB0E9401096B017C01632D3A
:100F50006F7070E080E090E00E94160A2DEC3CEC8F
:100F60004CEC5DE30E94CB0AA70196010E940209A6
:100F70006B017C012DC03090090260910A026F70F4
:100F800070E080E090E00E94160A2DEC3CEC4CEC06
:100F90005DE30E94CB0A6B017C01632D70E080E071
:100FA00090E00E94140A9B01AC01C701B6010E94A7
:100FB00002096B017C0137FE0BC0F7FAF094F7F8D9
:100FC000F09406C0C12CD12C30ECE32E3FE7F32E79
:100FD000A5019401C501B4010E94380B811108C01C
:100FE000A7019601C701B6010E94380B882359F06A
:100FF00084E491E00E94D30381E491E00E94D30352
:101000000E94C9031CCF20E030E04CE852E4C50147
:10101000B4010E946E0987FFD7C061E087E00E949B
:10102000CD0080910001863021F08F3F09F0D0C0C3
:1010300004C0E8E6F0E034906FC086E080930001E1
:10104000E8E6F0E084918F3F09F4C2C0813009F4F2
:1010500041C040F1823009F05EC01092B0001092A1
:10106000B1008091B00082608093B0008091B100A7
:1010700081608093B100F8018491E82FF0E0EE0FD9
:10108000FF1FED58FF4F85919491909352018093EB
:101090005101FE0184918093500161E086E00E943D
:1010A0001A0159C014BC15BC84B5826084BD85B5D5
:1010B000816085BDF8018491E82FF0E0EE0FFF1FFD
:1010C000ED58FF4F85919491FE01849180935401D6
:1010D000312C24C0109280001092810080918100F8
:1010E000886080938100809181008160809381007D
:1010F000F8018491E82FF0E0EE0FFF1FED58FF4F4D
:1011000085919491FE0184918093530161E086E082
:101110000E941A012BC0382E37FC5AC061E086E0CD
:101120000E941A01332021F0F2E03F121CC013C0CC
:1011300085B5887F836085BD27BC40925D01509254
:101140005E0160925F017092600180916E0082602A
:1011500080936E003DC08091B100887F8360809352
:10116000B10089EF21C081E038121AC0809181005E
:10117000887F816080938100EFE3FFE1F093890035
:10118000E09388004092590150925A0160925B01AD
:1011900070925C0180916F00826080936F0018C034
:1011A000F2E03F1215C08FE38093B30040925501E7
:1011B00050925601609257017092580180917000D0
:1011C00082608093700004C060E087E00E94CD00E0
:1011D0008FE191E00E94D30342E0C501B4010E9477
:1011E000E5038AE291E00E94D3038EE291E00E943F
:1011F000D30342E0C701B6010E94E5038CE391E00E
:10120000F9CE5058BB27AA270E9419090C948C0AC2
:101210000E947E0A38F00E94850A20F039F49F3F30
:1012200019F426F40C947B0A0EF4E095E7FB0C9479
:10123000750AE92F0E949D0A58F3BA1762077307CF
:101240008407950720F079F4A6F50C94BF0A0EF4F4
:10125000E0950B2EBA2FA02D0B01B90190010C01C6
:10126000CA01A0011124FF27591B99F0593F50F4DE
:10127000503E68F11A16F040A22F232F342F442736
:10128000585FF3CF469537952795A795F04053952E
:10129000C9F77EF41F16BA0B620B730B840BBAF0FE
:1012A0009150A1F0FF0FBB1F661F771F881FC2F769
:1012B0000EC0BA0F621F731F841F48F4879577957D
:1012C0006795B795F7959E3F08F0B0CF9395880F37
:1012D00008F09927EE0F9795879508950E94510A77
:1012E00008F481E008950E9487090C948C0A0E94FA
:1012F000850A58F00E947E0A40F029F45F3F29F0E9
:101300000C94750A51110C94C00A0C947B0A0E942B
:101310009D0A68F39923B1F3552391F3951B550B5F
:10132000BB27AA2762177307840738F09F5F5F4FB8
:10133000220F331F441FAA1FA9F335D00E2E3AF0F7
:10134000E0E832D091505040E695001CCAF72BD00F
:10135000FE2F29D0660F771F881FBB1F2617370760
:101360004807AB07B0E809F0BB0B802DBF01FF2792
:1013700093585F4F3AF09E3F510578F00C94750AF0
:101380000C94C00A5F3FE4F3983ED4F386957795BA
:101390006795B795F7959F5FC9F7880F911D96954B
:1013A000879597F90895E1E0660F771F881FBB1FA7
:1013B000621773078407BA0720F0621B730B840B54
:1013C000BA0BEE1F88F7E09508950E94A50A88F0F1
:1013D0009F5798F0B92F9927B751B0F0E1F0660FF9
:1013E000771F881F991F1AF0BA95C9F714C0B1303A
:1013F00091F00E94BF0AB1E008950C94BF0A672FD4
:10140000782F8827B85F39F0B93FCCF38695779568
:101410006795B395D9F73EF4909580957095619551
:101420007F4F8F4F9F4F0895E89409C097FB3EF47C
:1014300090958095709561957F4F8F4F9F4F992321
:10144000A9F0F92F96E9BB279395F695879577959F
:101450006795B795F111F8CFFAF4BB0F11F460FF5F
:101460001BC06F5F7F4F8F4F9F4F16C0882311F0B7
:1014700096E911C0772321F09EE8872F762F05C0CB
:10148000662371F096E8862F70E060E02AF09A9566
:10149000660F771F881FDAF7880F9695879597F95B
:1014A0000895990F0008550FAA0BE0E8FEEF1616F5
:1014B0001706E807F907C0F012161306E407F50748
:1014C00098F0621B730B840B950B39F40A2661F0BC
:1014D000232B242B252B21F408950A2609F4A1405F
:1014E000A6958FEF811D811D089597F99F6780E86C
:1014F00070E060E008959FEF80EC089500240A9466
:101500001616170618060906089500240A941216DE
:101510001306140605060895092E0394000C11F411
:10152000882352F0BB0F40F4BF2B11F460FF04C0BE
:101530006F5F7F4F8F4F9F4F089557FD9058440F17
:10154000551F59F05F3F71F04795880F97FB991F22
:1015500061F09F3F79F087950895121613061406DF
:10156000551FF2CF4695F1DF08C01616170618066C
:10157000991FF1CF86957105610508940895E89447
:10158000BB2766277727CB0197F908950E94510A58
:1015900008F48FEF08950E94DE0A0C948C0A0E94D2
:1015A0007E0A38F00E94850A20F0952311F00C94F1
:1015B000750A0C947B0A11240C94C00A0E949D0A9F
:1015C00070F3959FC1F3950F50E0551F629FF00196
:1015D000729FBB27F00DB11D639FAA27F00DB11DAF
:1015E000AA1F649F6627B00DA11D661F829F222738
:1015F000B00DA11D621F739FB00DA11D621F839FBF
:10160000A00D611D221F749F3327A00D611D231F94
:10161000849F600D211D822F762F6A2F11249F57E2
:1016200050409AF0F1F088234AF0EE0FFF1FBB1FE5
:10163000661F771F881F91505040A9F79E3F5105A4
:1016400080F00C94750A0C94C00A5F3FE4F3983E56
:10165000D4F3869577956795B795F795E7959F5F4E
:10166000C1F7FE2B880F911D9695879597F90895E0
:101670000E94510A880B990B0895A1E21A2EAA1B09
:10168000BB1BFD010DC0AA1FBB1FEE1FFF1FA21732
:10169000B307E407F50720F0A21BB30BE40BF50B2F
:1016A000661F771F881F991F1A9469F760957095B8
:1016B000809590959B01AC01BD01CF010895EE0F7F
:1016C000FF1F0590F491E02D099481E090E0F894DB
:0816D0000C946A0BF894FFCFA3
:1016D800FF000000005A03C302F102A7032203001F
:1016E8000314036E616E00696E66006F76660048CB
:1016F800756D69646974793A20002025090054657C
:101708006D70657261747572653A2000202A4320F5
:10171800000D0A004572726F722052656164000004
:00000001FF
